:020000040000FA
:06000000B4EF15F0120040
:06100000B4EF15F0120030
:061008003EEF13F01200A0
:021018001200C4
:06102A000100A22B0000F2
:0810300076000000050000003D
:08103800D9CFE6FFE1CFD9FF9B
:10104000D08EF28EFD0EDBCF08F0FE0EDBCF09F066
:10105000200E081802E19D0E091847E0400E0818FE
:1010600002E19D0E09183FE0100E081802E1F00E93
:10107000091836E0080E081802E1F00E09182DE0F4
:10108000100E081802E1F20E091824E0020E0818EA
:1010900002E1A00E09181BE0020E081802E19D0EE5
:1010A000091812E0010E081802E19D0E091809E066
:1010B000200E08181CE1F20E091819E1F28AD58EEB
:1010C00016D09D80CD8013D09D82CA8410D0A0827E
:1010D000B1800DD0F288F19C0AD0F086F19A07D049
:1010E000F088F19804D09D8C02D09D8A9F8AE552A9
:1010F000E7CFD9FF120078C092FF120078C093FFAB
:10110000120078C094FF12009268120093681200D7
:1011100094681200D180120004001200D9CFE6FFBB
:10112000E1CFD9FFFD0EDBCF08F0FE0EDBCF09F0DB
:101130001F0E081802E17C0E091801E113D11E0EE2
:10114000081802E17C0E091801E109D11D0E0818EA
:1011500002E17C0E091801E1FFD01C0E081802E123
:101160007C0E091801E1F5D01B0E081802E17C0E77
:10117000091801E1EBD01A0E081802E17C0E0918DB
:1011800001E1E1D0190E081802E17C0E091801E115
:10119000D7D0180E081802E17C0E091801E1CDD055
:1011A000820E081802E10F0E091801E1C3D0170ED4
:1011B000081802E17C0E091801E1B9D0160E0818D2
:1011C00002E17C0E091801E1AFD0120E081802E10D
:1011D0007C0E091801E1A5D0110E081802E17C0E61
:1011E000091801E19BD0100E081802E17C0E0918C5
:1011F00001E191D0810E081802E10F0E091801E1FA
:1012000087D00F0E081802E17C0E091801E17DD08D
:101210000E0E081802E17C0E091874E00D0E081875
:1012200002E17C0E09186BE00C0E081802E17C0E3E
:10123000091862E00B0E081802E17C0E091859E04B
:101240000A0E081802E17C0E091850E0090E081871
:1012500002E17C0E091847E0080E081802E17C0E36
:1012600009183EE0800E081802E10F0E091835E05B
:10127000050E081802E17C0E09182CE0040E08186F
:1012800002E17C0E091823E0030E081802E17C0E2F
:1012900009181AE0020E081802E17C0E091811E084
:1012A000010E081802E17C0E091808E008505CE104
:1012B0007C0E091859E19290808056D092928082DB
:1012C00053D09294808450D0929680864DD092983C
:1012D00080884AD0929A808A47D0926A896844D09E
:1012E0009390818041D0939281823ED09394818467
:1012F0003BD09396818638D09398818835D0939A45
:10130000818A32D0939C818C2FD0939E818E2CD059
:10131000936A8A6829D09490828026D0949282829F
:1013200023D09494828420D0949C828C1DD0949E4F
:10133000828E1AD0946A8B6817D09590838014D0CF
:101340009592838211D0959483840ED0959683864E
:101350000BD09598838808D0959A838A05D0959C60
:10136000838C02D0959E838EE552E7CFD9FF120081
:10137000D9CFE6FFE1CFD9FFFD0EDBCF08F0FE0E9F
:10138000DBCF09F01F0E081802E17C0E091801E1FD
:1013900013D11E0E081802E17C0E091801E109D1D3
:1013A0001D0E081802E17C0E091801E1FFD01C0E89
:1013B000081802E17C0E091801E1F5D01B0E08188F
:1013C00002E17C0E091801E1EBD01A0E081802E1C7
:1013D0007C0E091801E1E1D0190E081802E17C0E1B
:1013E000091801E1D7D0180E081802E17C0E09187F
:1013F00001E1CDD0820E081802E10F0E091801E1BB
:10140000C3D0170E081802E17C0E091801E1B9D00B
:10141000160E081802E17C0E091801E1AFD0120E79
:10142000081802E17C0E091801E1A5D0110E081878
:1014300002E17C0E091801E19BD0100E081802E1B0
:101440007C0E091801E191D0810E081802E10F0EFF
:10145000091801E187D00F0E081802E17C0E091867
:1014600001E17DD00E0E081802E17C0E091874E02F
:101470000D0E081802E17C0E09186BE00C0E08181E
:1014800002E17C0E091862E00B0E081802E17C0EE6
:10149000091859E00A0E081802E17C0E091850E0FC
:1014A000090E081802E17C0E091847E0080E08181A
:1014B00002E17C0E09183EE0800E081802E10F0ED2
:1014C000091835E0050E081802E17C0E09182CE019
:1014D000040E081802E17C0E091823E0030E081818
:1014E00002E17C0E09181AE0020E081802E17C0ED7
:1014F000091811E0010E081802E17C0E091808E035
:1015000008505CE17C0E091859E19290809056D009
:101510009292809253D09294809450D092968096DA
:101520004DD0929880984AD0929A809A47D0926AE9
:10153000896A44D09390819041D0939281923ED019
:10154000939481943BD09396819638D093988198C8
:1015500035D0939A819A32D0939C819C2FD0939EC0
:10156000819E2CD0936A8A6A29D09490829026D04A
:101570009492829223D09494829420D0949C829CC2
:101580001DD0949E829E1AD0946A8B6A17D0959033
:10159000839014D09592839211D0959483940ED019
:1015A000959683960BD09598839808D0959A839AB0
:1015B00005D0959C839C02D0959E839EE552E7CFF3
:1015C000D9FF1200D9CFE6FFE1CFD9FFFD0EDBCF67
:1015D00008F0FE0EDBCF09F01F0E081802E17C0EAA
:1015E000091801E1F5D01E0E081802E17C0E091859
:1015F00001E1EBD01D0E081802E17C0E091801E193
:10160000E1D01C0E081802E17C0E091801E1D7D0C8
:101610001B0E081802E17C0E091801E1CDD01A0E4C
:10162000081802E17C0E091801E1C3D0190E081850
:1016300002E17C0E091801E1B9D0180E081802E188
:101640007C0E091801E1AFD0170E081802E17C0EDC
:10165000091801E1A5D0160E081802E17C0E091840
:1016600001E19BD0120E081802E17C0E091801E17D
:1016700091D0110E081802E17C0E091801E187D003
:10168000100E081802E17C0E091801E17DD00F0E42
:10169000081802E17C0E091874E00E0E081802E129
:1016A0007C0E09186BE00D0E081802E17C0E09187B
:1016B00062E00C0E081802E17C0E091859E00B0ECE
:1016C000081802E17C0E091850E00A0E081802E121
:1016D0007C0E091847E0090E081802E17C0E091873
:1016E0003EE0080E081802E17C0E091835E0050EF0
:1016F000081802E17C0E09182CE0040E081802E11B
:101700007C0E091823E0030E081802E17C0E09186C
:101710001AE0020E081802E17C0E091811E0010E11
:10172000081802E17C0E091808E0085053E17C0E0D
:10173000091850E1929080704DD0929280724AD0F8
:101740009294807447D09296807644D09298807814
:1017500041D0929A807A3ED0939081703BD0939200
:10176000817238D09394817435D09396817632D03B
:10177000939881782FD0939A817A2CD0939C817CF6
:1017800029D0939E817E26D09490827023D094920B
:10179000827220D0949482741DD0949C827C1AD042
:1017A000949E827E17D09590837014D09592837208
:1017B00011D0959483740ED0959683760BD095981E
:1017C000837808D0959A837A05D0959C837C02D043
:1017D000959E837EE552E7CFD9FF1200D9CFE6FF71
:1017E000E1CFD9FFFD0EDBCF08F0FE0EDBCF09F015
:1017F000170E081802E17C0E091801E119D1160E26
:10180000081802E17C0E091801E109D1120E08182E
:1018100002E17C0E091801E1F9D0110E081802E16D
:101820007C0E091801E1E9D0100E081802E17C0EC7
:10183000091801E1D9D00F0E081802E17C0E091831
:1018400001E1C9D00E0E081802E17C0E091801E171
:10185000B9D00D0E081802E17C0E091801E1A9D0DB
:101860000C0E081802E17C0E091801E199D00B0E4C
:10187000081802E17C0E091801E189D00A0E081847
:1018800002E17C0E091801E179D0090E081802E185
:101890007C0E09186AE0080E081802E17C0E09188F
:1018A0005BE0050E081802E17C0E09184CE0040EFE
:1018B000081802E17C0E09183DE0030E081802E149
:1018C0007C0E09182EE0020E081802E17C0E0918A1
:1018D0001FE0010E081802E17C0E091810E0085004
:1018E00001E0ADD07C0E091801E0A9D09290FB0E6A
:1018F000DB50E8B08080E8B0A2D08090A0D0929277
:10190000FB0EDB50E8B08082E8B099D0809297D08F
:101910009294FB0EDB50E8B08084E8B090D08094C5
:101920008ED09296FB0EDB50E8B08086E8B087D070
:10193000809685D09298FB0EDB50E8B08088E8B0A6
:101940007ED080987CD0929AFB0EDB50E8B0808AE3
:10195000E8B075D0809A73D09390FB0EDB50E8B05E
:101960008180E8B06CD081906AD09392FB0EDB50FE
:10197000E8B08182E8B063D0819261D09394FB0E8D
:10198000DB50E8B08184E8B05AD0819458D0939667
:10199000FB0EDB50E8B08186E8B051D081964FD085
:1019A0009398FB0EDB50E8B08188E8B048D081986E
:1019B00046D0939AFB0EDB50E8B0818AE8B03FD066
:1019C000819A3DD0939CFB0EDB50E8B0818CE8B04F
:1019D00036D0819C34D0939EFB0EDB50E8B0818ED4
:1019E000E8B02DD0819E2BD09490FB0EDB50E8B058
:1019F0008280E8B024D0829022D09492FB0EDB50FB
:101A0000E8B08282E8B01BD0829219D09494FB0E89
:101A1000DB50E8B08284E8B012D0829410D0949C5D
:101A2000FB0EDB50E8B0828CE8B009D0829C07D076
:101A3000949EFB0EDB50E8B0828EE8A0829EE552B9
:101A4000E7CFD9FF1200D9CFE6FFE1CFD9FF020ED1
:101A5000E126DE6ADD6ADECF14F0DDCF15F0FD0E83
:101A6000DBCF16F0FE0EDBCF17F01650145C1750CC
:101A7000155806E20000DF2A010E01E3DB2AEBD74E
:101A8000020EE15C02E2E16AE552E16EE552E7CF67
:101A9000D9FF1200D9CFE6FFE1CFD9FF020EE12630
:101AA000D350200B01E0010E146EFC0E00017825CE
:101AB0001424A96E7851A9240B0BA66EA850FEE140
:101AC000DE6ADD6ADECF14F0DDCF15F0FD0EDBCF70
:101AD00016F0FE0EDBCF17F01650145C1750155899
:101AE0000AE2010EE66E94EC15F0E552DF2A010ED3
:101AF000E9E3DB2AE7D7020EE15C02E2E16AE552A4
:101B0000E16EE552E7CFD9FF1200D9CFE6FFE1CF72
:101B1000D9FFFE0EDB5000017825C16E070E782537
:101B2000C06EE552E7CFD9FF1200D9CFE6FFE1CF73
:101B3000D9FFFE0EDB500C0A24E0070A20E0010A60
:101B40001CE0030A18E0010A14E00C0A10E0070A7E
:101B50000CE0010A08E0030A04E0010A14E1010EA6
:101B600011D0050E0FD0090E0DD00D0E0BD0110E99
:101B700009D0210E07D0250E05D0290E03D02D0E39
:101B800001D0310EC26E0A0EE66EE66A83DFE552C0
:101B9000E552C09ED350200B02E0C28201D0C29217
:101BA000C2B2FED7C450156AF36E15C0F4FFE552F9
:101BB000E7CFD9FF1200D9CFE6FFE1CFD9FFFE0E64
:101BC000DB500C0A24E0070A20E0010A1CE0030AAB
:101BD00018E0010A14E00C0A10E0070A0CE0010A00
:101BE00008E0030A04E0010A14E1010E11D0050E19
:101BF0000FD0090E0DD00D0E0BD0110E09D0210EF5
:101C000007D0250E05D0290E03D02D0E01D0310EA0
:101C1000C26E0A0EE66EE66A3DDFE552E552D3502B
:101C2000200B02E0C08E01D0C09ED350200B02E0FA
:101C3000C28201D0C292C2B2FED7C3CFF3FFC4CFDB
:101C4000F4FFE552E7CFD9FF1200D9CFE6FFE1CF8D
:101C5000D9FFFE0EDB50030A67E0020A42E0010AE8
:101C600001E084D0FC0EDBCF08F0FD0EDBCF09F0E5
:101C7000020E081801E1095031E0040E081801E1D4
:101C800009502AE0080E081801E1095023E0100E5F
:101C9000081801E109501CE0200E081801E1095064
:101CA00015E0400E081801E109500EE0800E0818FA
:101CB00001E1095007E0085059E1010E091856E109
:101CC000870E0DD0860E0BD0850E09D0840E07D05E
:101CD000830E05D0820E03D0810E01D0800ED56E0A
:101CE00045D0FC0EDBCF08F0FD0EDBCF09F0010E76
:101CF000081801E1095015E0020E081801E1095029
:101D00000EE0040E081801E1095007E0080E08185B
:101D10002DE109502BE1B10E05D0A10E03D0910E9B
:101D200001D0810ECD6E22D0FC0EDBCF08F0FD0E6F
:101D3000DBCF09F0010E081801E1095015E0020E91
:101D4000081801E109500EE0040E081801E10950DD
:101D500007E0080E08180AE1095008E1B10E05D0A5
:101D6000A10E03D0910E01D0810EB16EE552E7CFE6
:101D7000D9FF1200D9CFE6FFE1CFD9FF060EE12649
:101D8000176A186A010E196EFC0EDBCF1AF0FD0EF1
:101D9000DBCF1BF01C6A1A50175C146E1B501858CE
:101DA000156E1C501958166E14C0DEFF15C0DDFFED
:101DB000146A010E156E14C00DF00E6EDECF08F021
:101DC000DDCF09F07EEC15F0020E08C0DBFF030E3C
:101DD00009C0DBFFDECF14F0DDCF15F0156A040E6D
:101DE00014C0DBFF050E15C0DBFFFE0EDB50030A3F
:101DF00012E0020A09E0010A14E1020EDB50D76E7C
:101E0000040EDB50D66E0DD0020EDB50CF6E040EEA
:101E1000DB50CE6E06D0020EDB50B36E040EDB50EC
:101E2000B26E060EE15C02E2E16AE552E16EE55255
:101E3000E7CFD9FF1200D9CFE6FFE1CFD9FF020EDD
:101E4000E126D66AC10ED56EDE6ADD6ADECF14F0F9
:101E5000DDCF15F0FD0EDBCF16F0FE0EDBCF17F059
:101E60001650145C175015580BE2060ED624D66E89
:101E7000F294F2A4FED7DF2A010EE8E3DB2AE6D7CC
:101E8000020EE15C02E2E16AE552E16EE552E7CF63
:101E9000D9FF1200D9CFE6FFE1CFD9FFA69EA69CBD
:101EA000A684FE0EDB50A96EFD0EDB50A86E550E0B
:101EB000A76EAA0EA76ED350200B02E0A68201D017
:101EC000A692A6B2FED7E552E7CFD9FF1200D9CF2E
:101ED000E6FFE1CFD9FFFE0EDB50A96EA694A69EC9
:101EE000A69CD350200B02E0A68001D0A690A8505B
:101EF000E552E7CFD9FF1200FD0EA96EA69EA69C63
:101F0000A680A8B081EF0FF0660ED36ED3A4FED7E3
:101F1000FD0EA96E0B0EA914A66EA85001E0FDD708
:101F20007E0E166E16C00EF0A9CF09F0C2EC15F0A9
:101F30000538F00B146E156A76C008F077C009F00A
:101F400014C00DF015C00EF07EEC15F008C079F04D
:101F500079C0E6FFBCDFE5520001786F1200D9CFEF
:101F6000E6FFE1CFD9FF040EE126948E949C240E67
:101F7000AC6E900EAB6E080EB86E78C018F0196A91
:101F80001A6A1B6A400E1C6E420E1D6E0F0E1E6EEC
:101F90001F6A1CC006F01DC007F0086E1FC009F0C4
:101FA000FB0EDBCF0BF0FC0EDBCF0CF0FD0EDBCF1E
:101FB0000DF0FE0EDBCF0EF03DEC15F018500624B0
:101FC000146E19500720156E1A500820166E1B50FB
:101FD0000920176E1406000E155A165A175A14C007
:101FE000DFFF010E15C0DBFF020E16C0DBFF030E84
:101FF00017C0DBFFD9CFE9FFDACFEAFFEECF14F04D
:10200000EECF15F0EECF16F0EFCF17F0080ED89008
:102010001732163215321432E806F9E11450B06E58
:10202000000EDB50AF6E040EE15C02E2E16AE552A5
:10203000E16EE552E7CFD9FF1200D9CFE6FFE1CF3D
:10204000D9FFACA2FED7FE0EDB5000017825AD6EA5
:10205000E552E7CFD9FF1200D9CFE6FFE1CFD9FF94
:10206000ACA2FED7FE0EDB5000017825AD6EE55226
:10207000E7CFD9FF1200D9CFE6FFE1CFD9FFACA25D
:10208000FED7B850080B01E0010E146EFE0EDB50B7
:1020900014C0E7FFE75204E0E8427F0BE706FCE1EB
:1020A00000017825AD6EE552E7CFD9FF1200D9CFF8
:1020B000E6FFE1CFD9FFE65260C0F6FF61C0F7FF4F
:1020C0000800F55010E0000160C0F6FF61C0F7FFA6
:1020D000602B000E61230800F550DF6EDFCFE6FFB6
:1020E000BBDFE552E9D7E552E552E7CFD9FF120051
:1020F000D9CFE6FFE1CFD9FFE65262C0F6FF63C059
:10210000F7FF0800F55010E0000162C0F6FF63C061
:10211000F7FF622B000E63230800F550DF6EDFCF60
:10212000E6FFA9DFE552E9D7E552E552E7CFD9FF4F
:102130001200D9CFE6FFE1CFD9FF00017A6B7A51C7
:10214000E76EFD0EDBCFE9FFFE0EDBCFEAFFE750C7
:10215000E926000EEA22EF5013E07A51E76EFD0EF9
:10216000DBCFE9FFFE0EDBCFEAFFE750E926000EEA
:10217000EA22EF50E66E70DFE55200017A2BDFD7DE
:10218000E552E7CFD9FF1200D9CFE6FFE1CFD9FF63
:1021900000017A6B7A51E76EFD0EDBCFE9FFFE0E90
:1021A000DBCFEAFFE750E926000EEA22EF5013E00A
:1021B0007A51E76EFD0EDBCFE9FFFE0EDBCFEAFFC3
:1021C000E750E926000EEA22EF50E66E54DFE552B2
:1021D00000017A2BDFD7E552E7CFD9FF1200D9CF24
:1021E000E6FFE1CFD9FFE150FD0FE96EFF0EDA20E7
:1021F000EA6E0F0ED880EE54270EED542AE2FD0E43
:10220000DBCF16F0FE0EDBCF17F0100E0D6E270E93
:102210000E6E16C008F017C009F07EEC15F008C06D
:1022200016F009C017F00A0E0D6E0E6A7EEC15F05E
:1022300004C016F005C017F0000178510001042415
:10224000146E000E0520156E300E1424E66E04DFA9
:10225000E552D950FD0FE96EFF0EDA20EA6EE70E67
:10226000D880EE54030EED5422E2FD0EDBCF14F0C5
:10227000FE0EDBCF15F0E80E0D6E030E0E6E14C0D1
:1022800008F015C009F07EEC15F008C014F009C084
:1022900015F00A0E0D6E0E6A7EEC15F004C014F0F7
:1022A00005C015F0300E0424E66ED6DEE552D95096
:1022B000FD0FE96EFF0EDA20EA6E630ED880EE5451
:1022C000000EED5429E2FD0EDBCF16F0FE0EDBCF43
:1022D00017F0640E0D6E0E6A16C008F017C009F0F4
:1022E0007EEC15F008C016F009C017F00A0E0D6E4E
:1022F0000E6A7EEC15F004C016F005C017F0000160
:10230000785100010424146E000E0520156E300E65
:102310001424E66EA1DEE552D950FD0FE96EFF0EE2
:10232000DA20EA6E090ED880EE54000EED5429E250
:10233000FD0EDBCF16F0FE0EDBCF17F00A0E0D6E92
:102340000E6A16C008F017C009F07EEC15F008C040
:1023500016F009C017F00A0E0D6E0E6A7EEC15F02D
:1023600004C016F005C017F00001785100010424E4
:10237000146E000E0520156E300E1424E66E6CDE11
:10238000E552FD0EDBCF16F0FE0EDBCF17F00A0E86
:102390000D6E0E6A16C008F017C009F07EEC15F03D
:1023A00004C016F005C017F00001785100010424A4
:1023B000146E000E0520156E300E1424E66E4CDEF1
:1023C000E552E552E7CFD9FF1200D9CFE6FFE1CFC2
:1023D000D9FF020EE1260C0E00017825BD12070E72
:1023E0007825CA6EFD0EA96ED350200B02E0A680A0
:1023F00001D0A690A850FEE1D350200B01E0010EC1
:10240000146EFD0E00017825145204E0E846FE0B20
:102410001406FCE1941678C017F0186A196A100EB9
:10242000086E096AFD0EDBCF0DF0FE0EDBCF0EF05D
:10243000C1EC14F006C01DF007C01EF01F6A1EBEDE
:102440001F68400E1A6E420E1B6E0F0E1C6E1AC0D5
:1024500007F01BC008F0096E1DC00CF01EC00DF087
:102460001FC00EF094EC14F017500724146E18508F
:102470000820156E19500920166E1406000E155A04
:10248000165A1450CB6ECB28166E176A086E17C0FA
:1024900009F0FB0EDBCF0DF0FC0EDBCF0EF0C1EC34
:1024A00014F006C014F007C015F0190E0D6E0E6A78
:1024B00006C008F007C009F06EEC14F008C0DEFF9B
:1024C00009C0DDFF00017851166E176ADE50162430
:1024D000146EDD501720156ED89015321432D89036
:1024E000153214321450BE6EDECF16F0DDCF17F069
:1024F000030E1616000E1716785100011624146EDE
:10250000000E1720156E040ED89014361536E80408
:10251000FBE11450BD12020EE15C02E2E16AE552F9
:10252000E16EE552E7CFD9FF1200D9CFE6FFE1CF48
:10253000D9FF020EE1260C0E00017825BA12070E13
:102540007825CA6EFD0EA96ED350200B02E0A6803E
:1025500001D0A690A850FEE1D350200B01E0010E5F
:10256000146EFE0E00017825145204E0E846FE0BBE
:102570001406FCE1941678C017F0186A196A100E58
:10258000086E096AFD0EDBCF0DF0FE0EDBCF0EF0FC
:10259000C1EC14F006C01DF007C01EF01F6A1EBE7D
:1025A0001F68400E1A6E420E1B6E0F0E1C6E1AC074
:1025B00007F01BC008F0096E1DC00CF01EC00DF026
:1025C0001FC00EF094EC14F017500724146E18502E
:1025D0000820156E19500920166E1406000E155AA3
:1025E000165A1450CB6ECB28166E176A086E17C099
:1025F00009F0FB0EDBCF0DF0FC0EDBCF0EF0C1ECD3
:1026000014F006C014F007C015F0190E0D6E0E6A16
:1026100006C008F007C009F06EEC14F008C0DEFF39
:1026200009C0DDFF00017851166E176ADE501624CE
:10263000146EDD501720156ED89015321432D890D4
:10264000153214321450BB6EDECF14F0DDCF15F00E
:10265000030E1416000E1516040ED89014361536F7
:10266000E804FBE11450BA12020EE15C02E2E16AF6
:10267000E552E16EE552E7CFD9FF1200DACFE4FF71
:10268000E2CFDAFFE9CFE4FFEACFE4FFF6CFE4FFE1
:10269000F7CFE4FFF5CFE4FFF3CFE4FFF4CFE4FF9F
:1026A000FACFE4FF00EE00F0140EE80403E3EECFEF
:1026B000E4FFFBD700EE14F00C0EE80403E3EECFCA
:1026C000E4FFFBD7E6529EA012D09E90E80EE66E85
:1026D000030EE66E010EE66EBAEC0EF0E552E55220
:1026E000E5520001010E686F696B6A6B6B6BE55216
:1026F00000EE1FF00C0EE80403E3E5CFEDFFFBD77F
:1027000000EE13F0140EE80403E3E5CFEDFFFBD772
:10271000E5CFFAFFE5CFF4FFE5CFF3FFE5CFF5FF17
:10272000E5CFF7FFE5CFF6FFE5CFEAFFE5CFE9FF1D
:10273000E5CFDAFF11007CEC0FF0010EE66E9D0E86
:10274000E66E1CEC08F0E552E552E80EE66E030E6C
:10275000E66E010EE66EBAEC0EF0E552E552E55279
:10276000040EE66EE66A010EE66E25EC0EF0E5520A
:10277000E552E55284A6FF000001685169116A1113
:102780006B1101E1A9D00001686B696B6A6B6B6B1F
:102790000001642B000E65236623672364C014F0D8
:1027A00065C015F066C016F067C017F0010E14166C
:1027B000156A166A176A145015101610171008E1DA
:1027C0000C0EE66E7C0EE66EE2EC0AF0E552E55287
:1027D00064C014F065C015F066C016F067C017F04D
:1027E0000A0E0B6E0C6A0D6A0E6A14C006F015C054
:1027F00007F016C008F017C009F03DEC15F002C054
:1028000014F003C015F004C016F005C017F0145002
:1028100015101610171008E10D0EE66E7C0EE66E10
:10282000E2EC0AF0E552E55264C014F065C015F020
:1028300066C016F067C017F0140E0B6E0C6A0D6AB6
:102840000E6A14C006F015C007F016C008F017C0D5
:1028500009F03DEC15F002C014F003C015F004C0FF
:1028600016F005C017F0145015101610171008E1D7
:102870000E0EE66E7C0EE66EE2EC0AF0E552E552D4
:1028800064C014F065C015F066C016F067C017F09C
:10289000640E0B6E0C6A0D6A0E6A14C006F015C049
:1028A00007F016C008F017C009F03DEC15F002C0A3
:1028B00014F003C015F004C016F005C017F0145052
:1028C00015101610171008E10F0EE66E7C0EE66E5E
:0C28D000E2EC0AF0E552E5524DD7120090
:0428DC00006A0EAED2
:1028E00077EF14F00D6C0E1EE86A0E22001E09AE82
:1028F0007FEF14F0086C091EE86A0922001E7EECC6
:1029000015F009BE8FEF14F000AE000C086C091E24
:10291000E86A0922046C051EE86A0522000C00BE64
:1029200086EF14F00188FF0C006A0EAE9FEF14F0E2
:102930000C6C0D1E0E1EE86A0D220E22001E09AE42
:10294000A9EF14F0076C081E091EE86A0822092284
:10295000001E61EC15F009BEBCEF14F000AE000CD7
:10296000076C081E091EE86A08220922036C041E6F
:10297000051E04220522000C00BEB0EF14F00188F1
:10298000FF0C09C013F008C012F008500D02F4CF7C
:1029900007F0F3CF06F009500E02F4CF09F0F3CFA1
:1029A00008F00D02F3500726F4500822E86A0922C5
:1029B00012500E02F3500726F4500822E86A09224A
:1029C0000EAEE7EF14F01250085E1350095A13AE22
:0C29D000000C0D50085E0E50095A000C5F
:0429DC002A0EF66E5B
:1029E000100EF76E000EF86E00010900F550716FC1
:1029F0000900F550726F03E1716701D03DD0090005
:102A0000F5506C6F0900F5506D6F0900F5506E6F51
:102A100009000900F550E96E0900F550EA6E090059
:102A200009000900F5506F6F0900F550706F09003B
:102A30000900F6CF73F0F7CF74F0F8CF75F06CC0E3
:102A4000F6FF6DC0F7FF6EC0F8FF00016F5302E1A3
:102A5000705307E00900F550EE6E6F07F8E270075B
:102A6000F9D773C0F6FF74C0F7FF75C0F8FF000117
:0A2A70007107000E725BBFD7120061
:062A7A00056A046A036A0C
:102A8000026A200EE76ED8900636073608360936F9
:102A900002360336043605360B50025C0C500358E0
:102AA0000D5004580E50055809E30B50025E0C50AF
:102AB000035A0D50045A0E50055A062AE72EE4D741
:022AC000120002
:0E2AC200056A046A036A180EE76ED89007369C
:102AD000083609360336043605360C50035C0D50B3
:102AE00004580E50055807E30C50035E0D50045A6D
:0C2AF0000E50055A072AE72EEAD7120004
:042AFC00056A046AF9
:102B0000100EE76ED89008360936043605360D509B
:102B1000045C0E50055805E30D50045E0E50055A36
:082B2000082AE72EF0D712008D
:082B2800FF0EE350206E480E81
:102B300001D04C0EE76EE72EFED7E76AE72EFED7F0
:082B4000202EF7D7000012005F
:082B4800000EF36E00EE00F038
:102B5000080E01D81200EA6002D0EE6AFCD7F350EA
:082B6000E9601200EE6AFCD7E7
:082B680013EE00F023EE00F073
:102B7000F86A019CEEEC14F0D0EC15F09BEC13F02D
:042B8000FBD712006D
:0C2B8400056A080EE76ED8900936053689
:102B90000E50055C02E3056E092AE72EF7D71200F6
:022BA000120021
:052BA200DF0F0FDF0052
:00000001FF
