:020000040000FA
:04100000FAEF08F00B
:08100800F76A180FF66E100ED6
:10101000F7220900F55012000D0A54656D706572D3
:10102000617475726120646F204C4D3335203D2012
:10103000256C7520430D0A00EA6A0A0EE96EEF502E
:101040000EE00F0E016E006A002EFED7012EFBD7B8
:101050008F0E006E002EFED70000EF2EF2D7000C90
:101060000B500D02F3CF01F0F4CF00F00E02F3505D
:1010700000260C500D02F3500020026E3DEF09F0E7
:10108000016A026A006A036A0F5002E10E5018E01A
:10109000100E106ED8900C360D36003603360F50F9
:1010A000035C02E10E50005C07E30E50005ED8A026
:1010B00003060F50035ED88001360236102EEAD7A1
:1010C0004AEF09F09EA8FED7AD6E000C006A016AD7
:1010D000026A036A1E6A1F6A206A216A1D501C1078
:1010E0001B101A102CE0200E226ED89016361736E0
:1010F000183619361E361F36203621361D50215C13
:1011000008E11C50205C05E11B501F5C02E11A50F5
:101110001E5C0FE31A501E5E1B50D8A01B3C1F5EC6
:101120001C50D8A01C3C205E1D50D8A01D3C215E48
:10113000D8800036013602360336222ED6D7EA6A28
:101140001E0EE96E000CE9500E6E3B0E156E9A0EE7
:10115000146ECA0E136E126A0A0E106E0DC019F0CC
:101160000CC018F00BC017F00AC016F015C01DF027
:1011700014C01CF013C01BF012C01AF0A7DF0150FE
:10118000EFCF0AF0ECCF0BF0ECCF0CF0ECCF0DF082
:1011900000520FE11050010A0CE00E500BE00F0B53
:1011A000105C01E00DE20EBE0BD00EBC03D0200E91
:1011B00002D00E6A300E002600509EA8FED7AD6EFB
:1011C00015C019F014C018F013C017F012C016F0B3
:1011D0001D6A1C6A1B6A0A0E1A6E78DF03C015F0BE
:1011E00002C014F001C013F000C012F0102EB6D7E8
:1011F00063EF09F0F86AD09EEA6AE96AB886E10E00
:10120000AF6E040EB06EA60EAC6E900EAB6EB886CE
:10121000700EAF6E020EB06EA60EAC6E900EAB6E80
:10122000C150C00B0F09C16E070EB46EC150C00B88
:101230000E09C16EC080C082C084C08EC2809686F6
:1012400084A6FF00000E016EC250C30B0110C26ED7
:101250000A0E0A6EF1DEC282C2B2FED7C4CF03F01C
:10126000C3CF09F0C4CF0AF0010E0C6EAE0E0B6EA8
:10127000C4CF0EF0C3CF0DF0F3D602C00BF001C007
:101280000AF002C00DF001C00CF0030E0F6EFF0E4D
:101290000E6EF6D6086A076A02C006F001C005F0B5
:1012A000096A0950B1DE092A0DDF180E095CF9E15F
:1012B000410EE96E08C00DF007C00CF006C00BF03F
:1012C00005C00AF040D71B0E0A6E0A509DDE0A2A9E
:1012D000F9DE1F0E0A5CF9E1939E8A8E020E096EFA
:1012E000FA0E0A6EA9DE092EFBD7939E8A9E020E85
:1012F000096EFA0E0A6EA0DE092EFBD7A0D70300F6
:020000040030CA
:0E000000240E3E1E008381000FC00FE00F4053
:00000001FF
;PIC18F4550
;CRC=6739  CREATED="22-fev-15 11:10"
