:020000040000FA
:04100000C5EF08F040
:08100800056ED8CF06F0E0CF21
:1010100007F00001E9CF0DF0EACF08F0E1CF09F0C9
:10102000E2CF0AF0D9CF0BF0DACF0CF0F3CF14F007
:10103000F4CF15F0FACF16F000C00FF001C010F099
:1010400002C011F003C012F004C013F09DAA2CEFEF
:1010500008F09EBA4FEF08F00FC000F010C001F08A
:1010600011C002F012C003F013C004F00DC0E9FF7C
:1010700008C0EAFF088E09C0E1FF0AC0E2FF0BC00A
:10108000D9FF0CC0DAFF14C0F3FF15C0F4FF16C07F
:10109000FAFF055007C0E0FF06C0D8FF10009EAA67
:1010A000FED7AECF19F01950310808E1939A8A8A19
:1010B000939C8A9C93968A9693988A8819503208B2
:1010C00008E1939A8A9A939C8A8C93968A8693983D
:1010D0008A981950340808E1939A8A8A939C8A9CCA
:1010E00093968A8693988A981950330808E1939AC0
:1010F0008A9A939C8A8C93968A9693988A88195098
:10110000300808E1939C8A9C939A8A9A93968A96CF
:1011100093988A98195035080DE11A2A1A2C05D08F
:10112000929A898A9298898805D01A6A929A899A9D
:10113000929889981950360809E11B2A1B2C03D074
:101140009296898603D01B6A929689961950410817
:1011500003E19294898402D0929489949E9A2CEF10
:1011600008F0EA6A1D0EE96EEF500EE00F0E016EF8
:10117000006A002EFED7012EFBD78F0E006E002EC8
:10118000FED70000EF2EF2D7000CF86AD09E088E32
:10119000EA6AE96AB886E10EAF6E040EB06EA60E7A
:1011A000AC6E900EAB6EB886700EAF6E020EB06E67
:1011B000A60EAC6E900EAB6EC150C00B0F09C16E87
:1011C000070EB46E18901A6A1B6AC00EF2129D8A3E
:1011D000939E8A7E020E1C6EFA0E1D6EC2DF1C2EBE
:1011E000FBD7968684B601D0FF0018A00AD0939E44
:1011F0008A7E020E1C6E960E1D6EB3DF1C2EFBD770
:06120000F4D7EFD7030054
:020000040030CA
:0E000000240E3E1E008381000FC00FE00F4053
:00000001FF
;PIC18F4550
;CRC=C674  CREATED="22-fev-15 11:12"
