:020000040000FA
:04100000D8EF08F02D
:08100800056ED8CF06F0E0CF21
:1010100007F00001E9CF0DF0EACF08F0E1CF09F0C9
:10102000E2CF0AF0D9CF0BF0DACF0CF0F3CF14F007
:10103000F4CF15F0FACF16F000C00FF001C010F099
:1010400002C011F003C012F004C013F09DAA2CEFEF
:1010500008F09EBA91EF08F00FC000F010C001F048
:1010600011C002F012C003F013C004F00DC0E9FF7C
:1010700008C0EAFF088E09C0E1FF0AC0E2FF0BC00A
:10108000D9FF0CC0DAFF14C0F3FF15C0F4FF16C07F
:10109000FAFF055007C0E0FF06C0D8FF1000F76A4E
:1010A000AE0FF66E100EF7220900F5501200204C1C
:1010B000696761646F0D0A00F76AC80FF66E100E5B
:1010C000F7220900F5501200204465736C696761CE
:1010D000646F0D0A0000F76AE60FF66E100EF72235
:1010E0000900F55012002070697363612D706973F7
:1010F00063610D0A0000F2CF0EF0F29EF76A100F46
:10110000F66E110EF7220900F5500EBEF28E120097
:1011100073616E7573620D0A00009EA8FED7AD6EF6
:10112000000C9EAAFED7AECF1AF01A504C0A05E06A
:10113000080A0FE0140A19E024D01990939E8A8EB1
:101140001D6A1D50ACDF1D2AE8DF090E1D5CF9E1A8
:1011500018D01990939E8A9E1D6A1D50ADDF1D2ADE
:10116000DCDF0C0E1D5CF9E10CD01980939E8A8E99
:101170001D6A1D50B0DF1D2AD0DF0E0E1D5CF9E187
:1011800000D09E9A2CEF08F0EA6A1C0EE96EEF5030
:101190000EE00F0E016E006A002EFED7012EFBD767
:1011A0008F0E006E002EFED70000EF2EF2D7000C3F
:1011B000F86AD09E088EEA6AE96AB886E10EAF6ED8
:1011C000040EB06EA60EAC6E900EAB6EB886700EAE
:1011D000AF6E020EB06EA60EAC6E900EAB6EC1502E
:1011E000C00B0F09C16E070EB46E1990C00EF2123B
:1011F0009D8A939E8A7E020E1B6EFA0E1C6EC4DFC1
:101200001B2EFBD7968684A6FF0019A00AD0939EBA
:101210008A7E020E1B6E960E1C6EB6DF1B2EFBD74F
:10122000F4D7939E8A7E080E1B6EFA0E1C6EACDFFE
:101230001B2EFBD71B6A1B505EDF1B2A6EDF080EBE
:081240001B5CF9E1DFD703009C
:020000040030CA
:0E000000240E3E1E008381000FC00FE00F4053
:00000001FF
;PIC18F4550
;CRC=2364  CREATED="22-fev-15 11:11"
